{
  "contractName": "MerkleProof",
  "abi": [
    {
      "inputs": [
        {
          "internalType": "uint256",
          "name": "_unlockOpenTime",
          "type": "uint256"
        },
        {
          "internalType": "uint256",
          "name": "_unlockCloseTime",
          "type": "uint256"
        },
        {
          "internalType": "contract MintedToken",
          "name": "_tokenAddress",
          "type": "address"
        }
      ],
      "stateMutability": "nonpayable",
      "type": "constructor"
    },
    {
      "anonymous": false,
      "inputs": [
        {
          "indexed": true,
          "internalType": "address",
          "name": "previousOwner",
          "type": "address"
        },
        {
          "indexed": true,
          "internalType": "address",
          "name": "newOwner",
          "type": "address"
        }
      ],
      "name": "OwnershipTransferred",
      "type": "event"
    },
    {
      "anonymous": false,
      "inputs": [
        {
          "indexed": false,
          "internalType": "bool",
          "name": "paused",
          "type": "bool"
        }
      ],
      "name": "Paused",
      "type": "event"
    },
    {
      "anonymous": false,
      "inputs": [
        {
          "indexed": false,
          "internalType": "address",
          "name": "UserAddress",
          "type": "address"
        },
        {
          "indexed": false,
          "internalType": "uint256",
          "name": "date",
          "type": "uint256"
        }
      ],
      "name": "UserUnlocked",
      "type": "event"
    },
    {
      "anonymous": false,
      "inputs": [
        {
          "indexed": false,
          "internalType": "address",
          "name": "UserAddress",
          "type": "address"
        },
        {
          "indexed": false,
          "internalType": "uint256",
          "name": "amount",
          "type": "uint256"
        },
        {
          "indexed": false,
          "internalType": "uint256",
          "name": "date",
          "type": "uint256"
        }
      ],
      "name": "tokenClaim",
      "type": "event"
    },
    {
      "inputs": [],
      "name": "FEE_ADDRESS",
      "outputs": [
        {
          "internalType": "address",
          "name": "",
          "type": "address"
        }
      ],
      "stateMutability": "view",
      "type": "function"
    },
    {
      "inputs": [],
      "name": "REFERRAL_FEE",
      "outputs": [
        {
          "internalType": "uint256",
          "name": "",
          "type": "uint256"
        }
      ],
      "stateMutability": "view",
      "type": "function"
    },
    {
      "inputs": [],
      "name": "SERVICE_FEE",
      "outputs": [
        {
          "internalType": "uint256",
          "name": "",
          "type": "uint256"
        }
      ],
      "stateMutability": "view",
      "type": "function"
    },
    {
      "inputs": [
        {
          "internalType": "uint256",
          "name": "",
          "type": "uint256"
        }
      ],
      "name": "allUsers",
      "outputs": [
        {
          "internalType": "address",
          "name": "",
          "type": "address"
        }
      ],
      "stateMutability": "view",
      "type": "function"
    },
    {
      "inputs": [],
      "name": "feeToken",
      "outputs": [
        {
          "internalType": "contract MintedToken",
          "name": "",
          "type": "address"
        }
      ],
      "stateMutability": "view",
      "type": "function"
    },
    {
      "inputs": [],
      "name": "merkleRoot",
      "outputs": [
        {
          "internalType": "uint256",
          "name": "",
          "type": "uint256"
        }
      ],
      "stateMutability": "view",
      "type": "function"
    },
    {
      "inputs": [],
      "name": "owner",
      "outputs": [
        {
          "internalType": "address",
          "name": "",
          "type": "address"
        }
      ],
      "stateMutability": "view",
      "type": "function"
    },
    {
      "inputs": [],
      "name": "paused",
      "outputs": [
        {
          "internalType": "bool",
          "name": "",
          "type": "bool"
        }
      ],
      "stateMutability": "view",
      "type": "function"
    },
    {
      "inputs": [],
      "name": "renounceOwnership",
      "outputs": [],
      "stateMutability": "nonpayable",
      "type": "function"
    },
    {
      "inputs": [],
      "name": "totalClaimed",
      "outputs": [
        {
          "internalType": "uint256",
          "name": "",
          "type": "uint256"
        }
      ],
      "stateMutability": "view",
      "type": "function"
    },
    {
      "inputs": [
        {
          "internalType": "address",
          "name": "newOwner",
          "type": "address"
        }
      ],
      "name": "transferOwnership",
      "outputs": [],
      "stateMutability": "nonpayable",
      "type": "function"
    },
    {
      "inputs": [],
      "name": "unlockCloseTime",
      "outputs": [
        {
          "internalType": "uint256",
          "name": "",
          "type": "uint256"
        }
      ],
      "stateMutability": "view",
      "type": "function"
    },
    {
      "inputs": [],
      "name": "unlockOpenTime",
      "outputs": [
        {
          "internalType": "uint256",
          "name": "",
          "type": "uint256"
        }
      ],
      "stateMutability": "view",
      "type": "function"
    },
    {
      "inputs": [
        {
          "internalType": "bool",
          "name": "_paused",
          "type": "bool"
        }
      ],
      "name": "changePause",
      "outputs": [],
      "stateMutability": "nonpayable",
      "type": "function"
    },
    {
      "inputs": [
        {
          "internalType": "address",
          "name": "_user",
          "type": "address"
        }
      ],
      "name": "isUnlocked",
      "outputs": [
        {
          "internalType": "bool",
          "name": "",
          "type": "bool"
        }
      ],
      "stateMutability": "view",
      "type": "function"
    },
    {
      "inputs": [],
      "name": "getRoot",
      "outputs": [
        {
          "internalType": "uint256",
          "name": "",
          "type": "uint256"
        }
      ],
      "stateMutability": "view",
      "type": "function"
    },
    {
      "inputs": [],
      "name": "getAllUnlockers",
      "outputs": [
        {
          "internalType": "address[]",
          "name": "",
          "type": "address[]"
        }
      ],
      "stateMutability": "view",
      "type": "function"
    },
    {
      "inputs": [
        {
          "internalType": "address",
          "name": "_account",
          "type": "address"
        }
      ],
      "name": "getUserData",
      "outputs": [
        {
          "internalType": "bool",
          "name": "",
          "type": "bool"
        },
        {
          "internalType": "uint256",
          "name": "",
          "type": "uint256"
        },
        {
          "internalType": "uint256",
          "name": "",
          "type": "uint256"
        },
        {
          "internalType": "bool",
          "name": "",
          "type": "bool"
        }
      ],
      "stateMutability": "view",
      "type": "function"
    },
    {
      "inputs": [
        {
          "internalType": "address payable",
          "name": "_refAddress",
          "type": "address"
        }
      ],
      "name": "unlock",
      "outputs": [],
      "stateMutability": "payable",
      "type": "function"
    },
    {
      "inputs": [
        {
          "internalType": "uint256[9]",
          "name": "_data",
          "type": "uint256[9]"
        },
        {
          "internalType": "uint256[]",
          "name": "_proof",
          "type": "uint256[]"
        }
      ],
      "name": "claimTokens",
      "outputs": [],
      "stateMutability": "nonpayable",
      "type": "function"
    },
    {
      "inputs": [
        {
          "internalType": "address",
          "name": "_account",
          "type": "address"
        }
      ],
      "name": "isUserClaimed",
      "outputs": [
        {
          "internalType": "bool",
          "name": "",
          "type": "bool"
        }
      ],
      "stateMutability": "view",
      "type": "function"
    },
    {
      "inputs": [
        {
          "internalType": "address",
          "name": "_account",
          "type": "address"
        }
      ],
      "name": "isUserUnlocked",
      "outputs": [
        {
          "internalType": "bool",
          "name": "",
          "type": "bool"
        }
      ],
      "stateMutability": "view",
      "type": "function"
    },
    {
      "inputs": [
        {
          "internalType": "uint256",
          "name": "_closingTime",
          "type": "uint256"
        }
      ],
      "name": "setClosingTime",
      "outputs": [],
      "stateMutability": "nonpayable",
      "type": "function"
    },
    {
      "inputs": [
        {
          "internalType": "address",
          "name": "_feeAddress",
          "type": "address"
        }
      ],
      "name": "setFeeAddress",
      "outputs": [],
      "stateMutability": "nonpayable",
      "type": "function"
    },
    {
      "inputs": [
        {
          "internalType": "uint256",
          "name": "_openingTime",
          "type": "uint256"
        }
      ],
      "name": "setOpeningTime",
      "outputs": [],
      "stateMutability": "nonpayable",
      "type": "function"
    },
    {
      "inputs": [
        {
          "internalType": "uint256",
          "name": "_merkleRoot",
          "type": "uint256"
        }
      ],
      "name": "setRoot",
      "outputs": [],
      "stateMutability": "nonpayable",
      "type": "function"
    },
    {
      "inputs": [
        {
          "internalType": "uint256",
          "name": "_value",
          "type": "uint256"
        },
        {
          "internalType": "uint256[]",
          "name": "_proof",
          "type": "uint256[]"
        }
      ],
      "name": "verifyMerkle",
      "outputs": [
        {
          "internalType": "bool",
          "name": "",
          "type": "bool"
        }
      ],
      "stateMutability": "view",
      "type": "function"
    }
  ],
  "bytecode": "0x60806040523480156200001157600080fd5b50604051620029593803806200295983398181016040528101906200003791906200023b565b620000576200004b620000b660201b60201c565b620000be60201b60201c565b60018081905550826004819055508160058190555080600260006101000a81548173ffffffffffffffffffffffffffffffffffffffff021916908373ffffffffffffffffffffffffffffffffffffffff16021790555050505062000297565b600033905090565b60008060009054906101000a900473ffffffffffffffffffffffffffffffffffffffff169050816000806101000a81548173ffffffffffffffffffffffffffffffffffffffff021916908373ffffffffffffffffffffffffffffffffffffffff1602179055508173ffffffffffffffffffffffffffffffffffffffff168173ffffffffffffffffffffffffffffffffffffffff167f8be0079c531659141344cd1fd0a4f28419497f9722a3daafe3b4186f6b6457e060405160405180910390a35050565b600080fd5b6000819050919050565b6200019c8162000187565b8114620001a857600080fd5b50565b600081519050620001bc8162000191565b92915050565b600073ffffffffffffffffffffffffffffffffffffffff82169050919050565b6000620001ef82620001c2565b9050919050565b60006200020382620001e2565b9050919050565b6200021581620001f6565b81146200022157600080fd5b50565b60008151905062000235816200020a565b92915050565b60008060006060848603121562000257576200025662000182565b5b60006200026786828701620001ab565b93505060206200027a86828701620001ab565b92505060406200028d8682870162000224565b9150509250925092565b6126b280620002a76000396000f3fe60806040526004361061019c5760003560e01c8063647846a5116100ec578063bad31d251161008a578063eb1edd6111610064578063eb1edd61146105ab578063f2f5a7e5146105d6578063f2fde38b146105ff578063ffc9896b146106285761019c565b8063bad31d251461052a578063d5419f8a14610555578063d54ad2a1146105805761019c565b80638705fcd4116100c65780638705fcd4146104705780638da5cb5b14610499578063a2bdedf4146104c4578063abdd11a8146105015761019c565b8063647846a514610405578063715018a6146104305780637b6f2f66146104475761019c565b80634b89c41d1161015957806351fdaae11161013357806351fdaae11461035b5780635c975abb146103865780635ca1e165146103b15780635d4fead3146103dc5761019c565b80634b89c41d146102ca5780634f70c325146102f357806350c86de5146103305761019c565b80630fba174d146101a15780632bbf532a146101cc5780632eb4a7ab146102095780632f6c493c146102345780633ab5c87b14610250578063467f82161461028d575b600080fd5b3480156101ad57600080fd5b506101b6610668565b6040516101c3919061176f565b60405180910390f35b3480156101d857600080fd5b506101f360048036038101906101ee91906117fc565b61066d565b6040516102009190611844565b60405180910390f35b34801561021557600080fd5b5061021e6106cb565b60405161022b919061176f565b60405180910390f35b61024e6004803603810190610249919061189d565b6106d1565b005b34801561025c57600080fd5b5061027760048036038101906102729190611a4f565b610a70565b6040516102849190611844565b60405180910390f35b34801561029957600080fd5b506102b460048036038101906102af91906117fc565b610aca565b6040516102c19190611844565b60405180910390f35b3480156102d657600080fd5b506102f160048036038101906102ec9190611aab565b610b28565b005b3480156102ff57600080fd5b5061031a600480360381019061031591906117fc565b610bae565b6040516103279190611844565b60405180910390f35b34801561033c57600080fd5b50610345610c0c565b604051610352919061176f565b60405180910390f35b34801561036757600080fd5b50610370610c18565b60405161037d919061176f565b60405180910390f35b34801561039257600080fd5b5061039b610c1e565b6040516103a89190611844565b60405180910390f35b3480156103bd57600080fd5b506103c6610c31565b6040516103d3919061176f565b60405180910390f35b3480156103e857600080fd5b5061040360048036038101906103fe9190611b04565b610c3b565b005b34801561041157600080fd5b5061041a610d0b565b6040516104279190611b90565b60405180910390f35b34801561043c57600080fd5b50610445610d31565b005b34801561045357600080fd5b5061046e60048036038101906104699190611bcd565b610db9565b005b34801561047c57600080fd5b50610497600480360381019061049291906117fc565b6110d6565b005b3480156104a557600080fd5b506104ae611196565b6040516104bb9190611c3a565b60405180910390f35b3480156104d057600080fd5b506104eb60048036038101906104e69190611aab565b6111bf565b6040516104f89190611c3a565b60405180910390f35b34801561050d57600080fd5b5061052860048036038101906105239190611aab565b6111fe565b005b34801561053657600080fd5b5061053f611284565b60405161054c9190611d13565b60405180910390f35b34801561056157600080fd5b5061056a611312565b604051610577919061176f565b60405180910390f35b34801561058c57600080fd5b50610595611318565b6040516105a2919061176f565b60405180910390f35b3480156105b757600080fd5b506105c061131e565b6040516105cd9190611c3a565b60405180910390f35b3480156105e257600080fd5b506105fd60048036038101906105f89190611aab565b611344565b005b34801561060b57600080fd5b50610626600480360381019061062191906117fc565b6113ca565b005b34801561063457600080fd5b5061064f600480360381019061064a91906117fc565b6114c2565b60405161065f9493929190611d35565b60405180910390f35b600f81565b600080600a60008473ffffffffffffffffffffffffffffffffffffffff1673ffffffffffffffffffffffffffffffffffffffff16815260200190815260200160002090508060000160009054906101000a900460ff16915050919050565b60065481565b600760009054906101000a900460ff1615610721576040517f08c379a000000000000000000000000000000000000000000000000000000000815260040161071890611dd7565b60405180910390fd5b6004544211610765576040517f08c379a000000000000000000000000000000000000000000000000000000000815260040161075c90611e43565b60405180910390fd5b60055442106107a9576040517f08c379a00000000000000000000000000000000000000000000000000000000081526004016107a090611eaf565b60405180910390fd5b6107b23361066d565b156107f2576040517f08c379a00000000000000000000000000000000000000000000000000000000081526004016107e990611f1b565b60405180910390fd5b67016345785d8a0000341461083c576040517f08c379a000000000000000000000000000000000000000000000000000000000815260040161083390611f87565b60405180910390fd5b600080600a60003373ffffffffffffffffffffffffffffffffffffffff1673ffffffffffffffffffffffffffffffffffffffff16815260200190815260200160002090506000600a60008573ffffffffffffffffffffffffffffffffffffffff1673ffffffffffffffffffffffffffffffffffffffff1681526020019081526020016000209050600073ffffffffffffffffffffffffffffffffffffffff168473ffffffffffffffffffffffffffffffffffffffff16146109695761090c6064600f61154990919063ffffffff16565b67016345785d8a000061091f9190611fd6565b92508373ffffffffffffffffffffffffffffffffffffffff166108fc849081150290604051600060405180830381858888f19350505050158015610967573d6000803e3d6000fd5b505b60008367016345785d8a000061097f9190612030565b9050600360009054906101000a900473ffffffffffffffffffffffffffffffffffffffff1673ffffffffffffffffffffffffffffffffffffffff166108fc829081150290604051600060405180830381858888f193505050501580156109e9573d6000803e3d6000fd5b5060018360000160006101000a81548160ff021916908315150217905550428360020181905550610a286001836001015461159390919063ffffffff16565b82600101819055507fb9d80cd4e49fc0a992bb018917ea4cee25f8eecad49b1a2271c4777ad6827f133342604051610a61929190612064565b60405180910390a15050505050565b60008083905060005b8351811015610abb57610aa682858381518110610a9957610a9861208d565b5b60200260200101516115f1565b91508080610ab3906120bc565b915050610a79565b60065482149250505092915050565b600080600a60008473ffffffffffffffffffffffffffffffffffffffff1673ffffffffffffffffffffffffffffffffffffffff16815260200190815260200160002090508060030160009054906101000a900460ff16915050919050565b610b30611627565b73ffffffffffffffffffffffffffffffffffffffff16610b4e611196565b73ffffffffffffffffffffffffffffffffffffffff1614610ba4576040517f08c379a0000000000000000000000000000000000000000000000000000000008152600401610b9b90612151565b60405180910390fd5b8060058190555050565b600080600a60008473ffffffffffffffffffffffffffffffffffffffff1673ffffffffffffffffffffffffffffffffffffffff16815260200190815260200160002090508060000160009054906101000a900460ff16915050919050565b67016345785d8a000081565b60045481565b600760009054906101000a900460ff1681565b6000600654905090565b610c43611627565b73ffffffffffffffffffffffffffffffffffffffff16610c61611196565b73ffffffffffffffffffffffffffffffffffffffff1614610cb7576040517f08c379a0000000000000000000000000000000000000000000000000000000008152600401610cae90612151565b60405180910390fd5b80600760006101000a81548160ff0219169083151502179055507f0e2fb031ee032dc02d8011dc50b816eb450cf856abd8261680dac74f72165bd281604051610d009190611844565b60405180910390a150565b600260009054906101000a900473ffffffffffffffffffffffffffffffffffffffff1681565b610d39611627565b73ffffffffffffffffffffffffffffffffffffffff16610d57611196565b73ffffffffffffffffffffffffffffffffffffffff1614610dad576040517f08c379a0000000000000000000000000000000000000000000000000000000008152600401610da490612151565b60405180910390fd5b610db7600061162f565b565b600760009054906101000a900460ff1615610e09576040517f08c379a0000000000000000000000000000000000000000000000000000000008152600401610e0090611dd7565b60405180910390fd5b6005544211610e4d576040517f08c379a0000000000000000000000000000000000000000000000000000000008152600401610e44906121bd565b60405180910390fd5b610e5633610bae565b610e95576040517f08c379a0000000000000000000000000000000000000000000000000000000008152600401610e8c90612229565b60405180910390fd5b610e9e33610aca565b15610ede576040517f08c379a0000000000000000000000000000000000000000000000000000000008152600401610ed590612295565b60405180910390fd5b600082600160098110610ef457610ef361208d565b5b6020020135905060003384604051602001610f1092919061231d565b6040516020818303038152906040528051906020012060001c9050610f358184610a70565b610f74576040517f08c379a0000000000000000000000000000000000000000000000000000000008152600401610f6b90612396565b60405180910390fd5b600260009054906101000a900473ffffffffffffffffffffffffffffffffffffffff1673ffffffffffffffffffffffffffffffffffffffff166340c10f1933846040518363ffffffff1660e01b8152600401610fd1929190612064565b6020604051808303816000875af1158015610ff0573d6000803e3d6000fd5b505050506040513d601f19601f8201168201806040525081019061101491906123cb565b506000600a60003373ffffffffffffffffffffffffffffffffffffffff1673ffffffffffffffffffffffffffffffffffffffff168152602001908152602001600020905060018160030160006101000a81548160ff0219169083151502179055504281600201819055506110938360095461159390919063ffffffff16565b507f4cd77af129e13fdebdac2ba12ea5741c39309a8877ce9a4b7f8bb0dbd41cd5e53384426040516110c7939291906123f8565b60405180910390a15050505050565b6110de611627565b73ffffffffffffffffffffffffffffffffffffffff166110fc611196565b73ffffffffffffffffffffffffffffffffffffffff1614611152576040517f08c379a000000000000000000000000000000000000000000000000000000000815260040161114990612151565b60405180910390fd5b80600360006101000a81548173ffffffffffffffffffffffffffffffffffffffff021916908373ffffffffffffffffffffffffffffffffffffffff16021790555050565b60008060009054906101000a900473ffffffffffffffffffffffffffffffffffffffff16905090565b600881815481106111cf57600080fd5b906000526020600020016000915054906101000a900473ffffffffffffffffffffffffffffffffffffffff1681565b611206611627565b73ffffffffffffffffffffffffffffffffffffffff16611224611196565b73ffffffffffffffffffffffffffffffffffffffff161461127a576040517f08c379a000000000000000000000000000000000000000000000000000000000815260040161127190612151565b60405180910390fd5b8060048190555050565b6060600880548060200260200160405190810160405280929190818152602001828054801561130857602002820191906000526020600020905b8160009054906101000a900473ffffffffffffffffffffffffffffffffffffffff1673ffffffffffffffffffffffffffffffffffffffff16815260200190600101908083116112be575b5050505050905090565b60055481565b60095481565b600360009054906101000a900473ffffffffffffffffffffffffffffffffffffffff1681565b61134c611627565b73ffffffffffffffffffffffffffffffffffffffff1661136a611196565b73ffffffffffffffffffffffffffffffffffffffff16146113c0576040517f08c379a00000000000000000000000000000000000000000000000000000000081526004016113b790612151565b60405180910390fd5b8060068190555050565b6113d2611627565b73ffffffffffffffffffffffffffffffffffffffff166113f0611196565b73ffffffffffffffffffffffffffffffffffffffff1614611446576040517f08c379a000000000000000000000000000000000000000000000000000000000815260040161143d90612151565b60405180910390fd5b600073ffffffffffffffffffffffffffffffffffffffff168173ffffffffffffffffffffffffffffffffffffffff1614156114b6576040517f08c379a00000000000000000000000000000000000000000000000000000000081526004016114ad906124a1565b60405180910390fd5b6114bf8161162f565b50565b6000806000806000600a60008773ffffffffffffffffffffffffffffffffffffffff1673ffffffffffffffffffffffffffffffffffffffff16815260200190815260200160002090508060000160009054906101000a900460ff16816001015482600201548360030160009054906101000a900460ff169450945094509450509193509193565b600061158b83836040518060400160405280601a81526020017f536166654d6174683a206469766973696f6e206279207a65726f0000000000008152506116f3565b905092915050565b60008082846115a291906124c1565b9050838110156115e7576040517f08c379a00000000000000000000000000000000000000000000000000000000081526004016115de90612563565b60405180910390fd5b8091505092915050565b6000818318604051602001611606919061176f565b6040516020818303038152906040528051906020012060001c905092915050565b600033905090565b60008060009054906101000a900473ffffffffffffffffffffffffffffffffffffffff169050816000806101000a81548173ffffffffffffffffffffffffffffffffffffffff021916908373ffffffffffffffffffffffffffffffffffffffff1602179055508173ffffffffffffffffffffffffffffffffffffffff168173ffffffffffffffffffffffffffffffffffffffff167f8be0079c531659141344cd1fd0a4f28419497f9722a3daafe3b4186f6b6457e060405160405180910390a35050565b6000808311829061173a576040517f08c379a000000000000000000000000000000000000000000000000000000000815260040161173191906125fa565b60405180910390fd5b5060008385611749919061264b565b9050809150509392505050565b6000819050919050565b61176981611756565b82525050565b60006020820190506117846000830184611760565b92915050565b6000604051905090565b600080fd5b600080fd5b600073ffffffffffffffffffffffffffffffffffffffff82169050919050565b60006117c98261179e565b9050919050565b6117d9816117be565b81146117e457600080fd5b50565b6000813590506117f6816117d0565b92915050565b60006020828403121561181257611811611794565b5b6000611820848285016117e7565b91505092915050565b60008115159050919050565b61183e81611829565b82525050565b60006020820190506118596000830184611835565b92915050565b600061186a8261179e565b9050919050565b61187a8161185f565b811461188557600080fd5b50565b60008135905061189781611871565b92915050565b6000602082840312156118b3576118b2611794565b5b60006118c184828501611888565b91505092915050565b6118d381611756565b81146118de57600080fd5b50565b6000813590506118f0816118ca565b92915050565b600080fd5b6000601f19601f8301169050919050565b7f4e487b7100000000000000000000000000000000000000000000000000000000600052604160045260246000fd5b611944826118fb565b810181811067ffffffffffffffff821117156119635761196261190c565b5b80604052505050565b600061197661178a565b9050611982828261193b565b919050565b600067ffffffffffffffff8211156119a2576119a161190c565b5b602082029050602081019050919050565b600080fd5b60006119cb6119c684611987565b61196c565b905080838252602082019050602084028301858111156119ee576119ed6119b3565b5b835b81811015611a175780611a0388826118e1565b8452602084019350506020810190506119f0565b5050509392505050565b600082601f830112611a3657611a356118f6565b5b8135611a468482602086016119b8565b91505092915050565b60008060408385031215611a6657611a65611794565b5b6000611a74858286016118e1565b925050602083013567ffffffffffffffff811115611a9557611a94611799565b5b611aa185828601611a21565b9150509250929050565b600060208284031215611ac157611ac0611794565b5b6000611acf848285016118e1565b91505092915050565b611ae181611829565b8114611aec57600080fd5b50565b600081359050611afe81611ad8565b92915050565b600060208284031215611b1a57611b19611794565b5b6000611b2884828501611aef565b91505092915050565b6000819050919050565b6000611b56611b51611b4c8461179e565b611b31565b61179e565b9050919050565b6000611b6882611b3b565b9050919050565b6000611b7a82611b5d565b9050919050565b611b8a81611b6f565b82525050565b6000602082019050611ba56000830184611b81565b92915050565b600081905082602060090282011115611bc757611bc66119b3565b5b92915050565b6000806101408385031215611be557611be4611794565b5b6000611bf385828601611bab565b92505061012083013567ffffffffffffffff811115611c1557611c14611799565b5b611c2185828601611a21565b9150509250929050565b611c34816117be565b82525050565b6000602082019050611c4f6000830184611c2b565b92915050565b600081519050919050565b600082825260208201905092915050565b6000819050602082019050919050565b611c8a816117be565b82525050565b6000611c9c8383611c81565b60208301905092915050565b6000602082019050919050565b6000611cc082611c55565b611cca8185611c60565b9350611cd583611c71565b8060005b83811015611d06578151611ced8882611c90565b9750611cf883611ca8565b925050600181019050611cd9565b5085935050505092915050565b60006020820190508181036000830152611d2d8184611cb5565b905092915050565b6000608082019050611d4a6000830187611835565b611d576020830186611760565b611d646040830185611760565b611d716060830184611835565b95945050505050565b600082825260208201905092915050565b7f5061757365642100000000000000000000000000000000000000000000000000600082015250565b6000611dc1600783611d7a565b9150611dcc82611d8b565b602082019050919050565b60006020820190508181036000830152611df081611db4565b9050919050565b7f756e6c6f636b20706572696f64206973206e6f7420617661696c61626c650000600082015250565b6000611e2d601e83611d7a565b9150611e3882611df7565b602082019050919050565b60006020820190508181036000830152611e5c81611e20565b9050919050565b7f636c6f7365640000000000000000000000000000000000000000000000000000600082015250565b6000611e99600683611d7a565b9150611ea482611e63565b602082019050919050565b60006020820190508181036000830152611ec881611e8c565b9050919050565b7f7573657220616c726561647920756e6c6f636b65640000000000000000000000600082015250565b6000611f05601583611d7a565b9150611f1082611ecf565b602082019050919050565b60006020820190508181036000830152611f3481611ef8565b9050919050565b7f7365727669636520666565206d75737420626520302e31206574686572000000600082015250565b6000611f71601d83611d7a565b9150611f7c82611f3b565b602082019050919050565b60006020820190508181036000830152611fa081611f64565b9050919050565b7f4e487b7100000000000000000000000000000000000000000000000000000000600052601160045260246000fd5b6000611fe182611756565b9150611fec83611756565b9250817fffffffffffffffffffffffffffffffffffffffffffffffffffffffffffffffff048311821515161561202557612024611fa7565b5b828202905092915050565b600061203b82611756565b915061204683611756565b92508282101561205957612058611fa7565b5b828203905092915050565b60006040820190506120796000830185611c2b565b6120866020830184611760565b9392505050565b7f4e487b7100000000000000000000000000000000000000000000000000000000600052603260045260246000fd5b60006120c782611756565b91507fffffffffffffffffffffffffffffffffffffffffffffffffffffffffffffffff8214156120fa576120f9611fa7565b5b600182019050919050565b7f4f776e61626c653a2063616c6c6572206973206e6f7420746865206f776e6572600082015250565b600061213b602083611d7a565b915061214682612105565b602082019050919050565b6000602082019050818103600083015261216a8161212e565b9050919050565b7f636c61696d20706572696f64206973206e6f7420617661696c61626c65000000600082015250565b60006121a7601d83611d7a565b91506121b282612171565b602082019050919050565b600060208201905081810360008301526121d68161219a565b9050919050565b7f75736572206973206e6f7420756e6c6f636b6564000000000000000000000000600082015250565b6000612213601483611d7a565b915061221e826121dd565b602082019050919050565b6000602082019050818103600083015261224281612206565b9050919050565b7f7573657220616c726561647920636c61696d6564000000000000000000000000600082015250565b600061227f601483611d7a565b915061228a82612249565b602082019050919050565b600060208201905081810360008301526122ae81612272565b9050919050565b60008160601b9050919050565b60006122cd826122b5565b9050919050565b60006122df826122c2565b9050919050565b6122f76122f2826117be565b6122d4565b82525050565b82818337600083830152505050565b61231961012083836122fd565b5050565b600061232982856122e6565b601482019150612339828461230c565b610120820191508190509392505050565b7f6c656166206973206e6f7420636f727265637400000000000000000000000000600082015250565b6000612380601383611d7a565b915061238b8261234a565b602082019050919050565b600060208201905081810360008301526123af81612373565b9050919050565b6000815190506123c581611ad8565b92915050565b6000602082840312156123e1576123e0611794565b5b60006123ef848285016123b6565b91505092915050565b600060608201905061240d6000830186611c2b565b61241a6020830185611760565b6124276040830184611760565b949350505050565b7f4f776e61626c653a206e6577206f776e657220697320746865207a65726f206160008201527f6464726573730000000000000000000000000000000000000000000000000000602082015250565b600061248b602683611d7a565b91506124968261242f565b604082019050919050565b600060208201905081810360008301526124ba8161247e565b9050919050565b60006124cc82611756565b91506124d783611756565b9250827fffffffffffffffffffffffffffffffffffffffffffffffffffffffffffffffff0382111561250c5761250b611fa7565b5b828201905092915050565b7f536166654d6174683a206164646974696f6e206f766572666c6f770000000000600082015250565b600061254d601b83611d7a565b915061255882612517565b602082019050919050565b6000602082019050818103600083015261257c81612540565b9050919050565b600081519050919050565b60005b838110156125ac578082015181840152602081019050612591565b838111156125bb576000848401525b50505050565b60006125cc82612583565b6125d68185611d7a565b93506125e681856020860161258e565b6125ef816118fb565b840191505092915050565b6000602082019050818103600083015261261481846125c1565b905092915050565b7f4e487b7100000000000000000000000000000000000000000000000000000000600052601260045260246000fd5b600061265682611756565b915061266183611756565b9250826126715761267061261c565b5b82820490509291505056fea2646970667358221220cd3c546f404ab79c5d552c09fedc3608cb4566d79a183c1da206a018d9b48cbb64736f6c634300080b0033",
  "immutableReferences": {},
  "source": "//SPDX-License-Identifier: Public Domain\npragma solidity ^0.8.0;\n\n\nabstract contract ReentrancyGuard {\n    // Booleans are more expensive than uint256 or any type that takes up a full\n    // word because each write operation emits an extra SLOAD to first read the\n    // slot's contents, replace the bits taken up by the boolean, and then write\n    // back. This is the compiler's defense against contract upgrades and\n    // pointer aliasing, and it cannot be disabled.\n\n    // The values being non-zero value makes deployment a bit more expensive,\n    // but in exchange the refund on every call to nonReentrant will be lower in\n    // amount. Since refunds are capped to a percentage of the total\n    // transaction's gas, it is best to keep them low in cases like this one, to\n    // increase the likelihood of the full refund coming into effect.\n    uint256 private constant _NOT_ENTERED = 1;\n    uint256 private constant _ENTERED = 2;\n\n    uint256 private _status;\n\n    constructor()  {\n        _status = _NOT_ENTERED;\n    }\n\n    /**\n     * @dev Prevents a contract from calling itself, directly or indirectly.\n     * Calling a `nonReentrant` function from another `nonReentrant`\n     * function is not supported. It is possible to prevent this from happening\n     * by making the `nonReentrant` function external, and make it call a\n     * `private` function that does the actual work.\n     */\n    modifier nonReentrant() {\n        // On the first call to nonReentrant, _notEntered will be true\n        require(_status != _ENTERED, \"ReentrancyGuard: reentrant call\");\n\n        // Any calls to nonReentrant after this point will fail\n        _status = _ENTERED;\n\n        _;\n\n        // By storing the original value once again, a refund is triggered (see\n        // https://eips.ethereum.org/EIPS/eip-2200)\n        _status = _NOT_ENTERED;\n    }\n}\n\nabstract contract Context {\n    function _msgSender() internal view virtual returns (address) {\n        return msg.sender;\n    }\n\n    function _msgData() internal view virtual returns (bytes calldata) {\n        return msg.data;\n    }\n}\n\nabstract contract Ownable is Context {\n    address private _owner;\n\n    event OwnershipTransferred(\n        address indexed previousOwner,\n        address indexed newOwner\n    );\n\n    /**\n     * @dev Initializes the contract setting the deployer as the initial owner.\n     */\n    constructor() {\n        _setOwner(_msgSender());\n    }\n\n    /**\n     * @dev Returns the address of the current owner.\n     */\n    function owner() public view virtual returns (address) {\n        return _owner;\n    }\n\n    /**\n     * @dev Throws if called by any account other than the owner.\n     */\n    modifier onlyOwner() {\n        require(owner() == _msgSender(), \"Ownable: caller is not the owner\");\n        _;\n    }\n\n    /**\n     * @dev Leaves the contract without owner. It will not be possible to call\n     * `onlyOwner` functions anymore. Can only be called by the current owner.\n     *\n     * NOTE: Renouncing ownership will leave the contract without an owner,\n     * thereby removing any functionality that is only available to the owner.\n     */\n    function renounceOwnership() public virtual onlyOwner {\n        _setOwner(address(0));\n    }\n\n    /**\n     * @dev Transfers ownership of the contract to a new account (`newOwner`).\n     * Can only be called by the current owner.\n     */\n    function transferOwnership(address newOwner) public virtual onlyOwner {\n        require(\n            newOwner != address(0),\n            \"Ownable: new owner is the zero address\"\n        );\n        _setOwner(newOwner);\n    }\n\n    function _setOwner(address newOwner) private {\n        address oldOwner = _owner;\n        _owner = newOwner;\n        emit OwnershipTransferred(oldOwner, newOwner);\n    }\n}\n\n\nlibrary SafeMath {\n    /**\n     * @dev Returns the addition of two unsigned integers, reverting on\n     * overflow.\n     *\n     * Counterpart to Solidity's `+` operator.\n     *\n     * Requirements:\n     *\n     * - Addition cannot overflow.\n     */\n    function add(uint256 a, uint256 b) internal pure returns (uint256) {\n        uint256 c = a + b;\n        require(c >= a, \"SafeMath: addition overflow\");\n\n        return c;\n    }\n\n    /**\n     * @dev Returns the subtraction of two unsigned integers, reverting on\n     * overflow (when the result is negative).\n     *\n     * Counterpart to Solidity's `-` operator.\n     *\n     * Requirements:\n     *\n     * - Subtraction cannot overflow.\n     */\n    function sub(uint256 a, uint256 b) internal pure returns (uint256) {\n        return sub(a, b, \"SafeMath: subtraction overflow\");\n    }\n\n    /**\n     * @dev Returns the subtraction of two unsigned integers, reverting with custom message on\n     * overflow (when the result is negative).\n     *\n     * Counterpart to Solidity's `-` operator.\n     *\n     * Requirements:\n     *\n     * - Subtraction cannot overflow.\n     */\n    function sub(\n        uint256 a,\n        uint256 b,\n        string memory errorMessage\n    ) internal pure returns (uint256) {\n        require(b <= a, errorMessage);\n        uint256 c = a - b;\n\n        return c;\n    }\n\n    /**\n     * @dev Returns the multiplication of two unsigned integers, reverting on\n     * overflow.\n     *\n     * Counterpart to Solidity's `*` operator.\n     *\n     * Requirements:\n     *\n     * - Multiplication cannot overflow.\n     */\n    function mul(uint256 a, uint256 b) internal pure returns (uint256) {\n        // Gas optimization: this is cheaper than requiring 'a' not being zero, but the\n        // benefit is lost if 'b' is also tested.\n        // See: https://github.com/OpenZeppelin/openzeppelin-contracts/pull/522\n        if (a == 0) {\n            return 0;\n        }\n\n        uint256 c = a * b;\n        require(c / a == b, \"SafeMath: multiplication overflow\");\n\n        return c;\n    }\n\n    /**\n     * @dev Returns the integer division of two unsigned integers. Reverts on\n     * division by zero. The result is rounded towards zero.\n     *\n     * Counterpart to Solidity's `/` operator. Note: this function uses a\n     * `revert` opcode (which leaves remaining gas untouched) while Solidity\n     * uses an invalid opcode to revert (consuming all remaining gas).\n     *\n     * Requirements:\n     *\n     * - The divisor cannot be zero.\n     */\n    function div(uint256 a, uint256 b) internal pure returns (uint256) {\n        return div(a, b, \"SafeMath: division by zero\");\n    }\n\n    /**\n     * @dev Returns the integer division of two unsigned integers. Reverts with custom message on\n     * division by zero. The result is rounded towards zero.\n     *\n     * Counterpart to Solidity's `/` operator. Note: this function uses a\n     * `revert` opcode (which leaves remaining gas untouched) while Solidity\n     * uses an invalid opcode to revert (consuming all remaining gas).\n     *\n     * Requirements:\n     *\n     * - The divisor cannot be zero.\n     */\n    function div(\n        uint256 a,\n        uint256 b,\n        string memory errorMessage\n    ) internal pure returns (uint256) {\n        require(b > 0, errorMessage);\n        uint256 c = a / b;\n        // assert(a == b * c + a % b); // There is no case in which this doesn't hold\n\n        return c;\n    }\n\n    /**\n     * @dev Returns the remainder of dividing two unsigned integers. (unsigned integer modulo),\n     * Reverts when dividing by zero.\n     *\n     * Counterpart to Solidity's `%` operator. This function uses a `revert`\n     * opcode (which leaves remaining gas untouched) while Solidity uses an\n     * invalid opcode to revert (consuming all remaining gas).\n     *\n     * Requirements:\n     *\n     * - The divisor cannot be zero.\n     */\n    function mod(uint256 a, uint256 b) internal pure returns (uint256) {\n        return mod(a, b, \"SafeMath: modulo by zero\");\n    }\n\n    /**\n     * @dev Returns the remainder of dividing two unsigned integers. (unsigned integer modulo),\n     * Reverts with custom message when dividing by zero.\n     *\n     * Counterpart to Solidity's `%` operator. This function uses a `revert`\n     * opcode (which leaves remaining gas untouched) while Solidity uses an\n     * invalid opcode to revert (consuming all remaining gas).\n     *\n     * Requirements:\n     *\n     * - The divisor cannot be zero.\n     */\n    function mod(\n        uint256 a,\n        uint256 b,\n        string memory errorMessage\n    ) internal pure returns (uint256) {\n        require(b != 0, errorMessage);\n        return a % b;\n    }\n}\n\n\ninterface IERC20 {\n    \n    function totalSupply() external view returns (uint256);\n\n    \n    function balanceOf(address account) external view returns (uint256);\n\n    \n    function transfer(address recipient, uint256 amount) external returns (bool);\n\n    \n    function allowance(address owner, address spender) external view returns (uint256);\n\n    \n    function approve(address spender, uint256 amount) external returns (bool);\n\n    \n    function transferFrom(address sender, address recipient, uint256 amount) external returns (bool);\n\n    \n    event Transfer(address indexed from, address indexed to, uint256 value);\n\n    \n    event Approval(address indexed owner, address indexed spender, uint256 value);\n}\n\n\ncontract ERC20 is Context, IERC20 {\n    using SafeMath for uint256;\n\n    mapping (address => uint256) private _balances;\n\n    mapping (address => mapping (address => uint256)) private _allowances;\n\n    uint256 private _totalSupply;\n\n    \n    function totalSupply() public view returns (uint256) {\n        return _totalSupply;\n    }\n\n    \n    function balanceOf(address account) public view returns (uint256) {\n        return _balances[account];\n    }\n\n    \n    function transfer(address recipient, uint256 amount) public returns (bool) {\n        _transfer(_msgSender(), recipient, amount);\n        return true;\n    }\n\n    \n    function allowance(address owner, address spender) public view returns (uint256) {\n        return _allowances[owner][spender];\n    }\n\n    \n    function approve(address spender, uint256 amount) public returns (bool) {\n        _approve(_msgSender(), spender, amount);\n        return true;\n    }\n\n    \n    function transferFrom(address sender, address recipient, uint256 amount) public returns (bool) {\n        _transfer(sender, recipient, amount);\n        _approve(sender, _msgSender(), _allowances[sender][_msgSender()].sub(amount, \"ERC20: transfer amount exceeds allowance\"));\n        return true;\n    }\n\n    \n    function increaseAllowance(address spender, uint256 addedValue) public returns (bool) {\n        _approve(_msgSender(), spender, _allowances[_msgSender()][spender].add(addedValue));\n        return true;\n    }\n\n    \n    function decreaseAllowance(address spender, uint256 subtractedValue) public returns (bool) {\n        _approve(_msgSender(), spender, _allowances[_msgSender()][spender].sub(subtractedValue, \"ERC20: decreased allowance below zero\"));\n        return true;\n    }\n\n    \n    function _transfer(address sender, address recipient, uint256 amount) internal {\n        require(sender != address(0), \"ERC20: transfer from the zero address\");\n        require(recipient != address(0), \"ERC20: transfer to the zero address\");\n\n        _balances[sender] = _balances[sender].sub(amount, \"ERC20: transfer amount exceeds balance\");\n        _balances[recipient] = _balances[recipient].add(amount);\n        emit Transfer(sender, recipient, amount);\n    }\n\n    \n    function _mint(address account, uint256 amount) internal {\n        require(account != address(0), \"ERC20: mint to the zero address\");\n\n        _totalSupply = _totalSupply.add(amount);\n        _balances[account] = _balances[account].add(amount);\n        emit Transfer(address(0), account, amount);\n    }\n\n    \n    function _burn(address account, uint256 amount) internal {\n        require(account != address(0), \"ERC20: burn from the zero address\");\n\n        _balances[account] = _balances[account].sub(amount, \"ERC20: burn amount exceeds balance\");\n        _totalSupply = _totalSupply.sub(amount);\n        emit Transfer(account, address(0), amount);\n    }\n\n    \n    function _approve(address owner, address spender, uint256 amount) internal {\n        require(owner != address(0), \"ERC20: approve from the zero address\");\n        require(spender != address(0), \"ERC20: approve to the zero address\");\n\n        _allowances[owner][spender] = amount;\n        emit Approval(owner, spender, amount);\n    }\n\n    \n    function _burnFrom(address account, uint256 amount) internal {\n        _burn(account, amount);\n        _approve(account, _msgSender(), _allowances[account][_msgSender()].sub(amount, \"ERC20: burn amount exceeds allowance\"));\n    }\n}\n\nlibrary Roles {\n    struct Role {\n        mapping (address => bool) bearer;\n    }\n\n    \n    function add(Role storage role, address account) internal {\n        require(!has(role, account), \"Roles: account already has role\");\n        role.bearer[account] = true;\n    }\n\n    \n    function remove(Role storage role, address account) internal {\n        require(has(role, account), \"Roles: account does not have role\");\n        role.bearer[account] = false;\n    }\n\n    \n    function has(Role storage role, address account) internal view returns (bool) {\n        require(account != address(0), \"Roles: account is the zero address\");\n        return role.bearer[account];\n    }\n}\n\nabstract contract MinterRole is Context {\n    using Roles for Roles.Role;\n\n    event MinterAdded(address indexed account);\n    event MinterRemoved(address indexed account);\n\n    Roles.Role private _minters;\n\n    constructor () {\n        _addMinter(_msgSender());\n    }\n\n    modifier onlyMinter() {\n        require(isMinter(_msgSender()), \"MinterRole: caller does not have the Minter role\");\n        _;\n    }\n\n    function isMinter(address account) public view returns (bool) {\n        return _minters.has(account);\n    }\n\n    function addMinter(address account) public onlyMinter {\n        _addMinter(account);\n    }\n\n    function renounceMinter() public {\n        _removeMinter(_msgSender());\n    }\n\n    function _addMinter(address account) internal {\n        _minters.add(account);\n        emit MinterAdded(account);\n    }\n\n    function _removeMinter(address account) internal {\n        _minters.remove(account);\n        emit MinterRemoved(account);\n    }\n}\n\n\ncontract ERC20Mintable is ERC20, MinterRole {\n    \n    function mint(address account, uint256 amount) public onlyMinter returns (bool) {\n        _mint(account, amount);\n        return true;\n    }\n}\n\nabstract contract ERC20Detailed is IERC20 {\n    string private _name;\n    string private _symbol;\n    uint8 private _decimals;\n\n    \n    constructor (string memory __name, string memory __symbol, uint8 __decimals)  {\n        _name = __name;\n        _symbol = __symbol;\n        _decimals = __decimals;\n    }\n\n    \n    function name() public view returns (string memory) {\n        return _name;\n    }\n\n    \n    function symbol() public view returns (string memory) {\n        return _symbol;\n    }\n\n    \n    function decimals() public view returns (uint8) {\n        return _decimals;\n    }\n}\n\ncontract MintedToken is ERC20, ERC20Detailed, ERC20Mintable {\n     constructor  (\n        string memory name,\n        string memory symbol,\n        uint initial_supply\n        \n    )\n        ERC20Detailed(name, symbol, 18)\n    {\n        // constructor can stay empty\n    }\n}\n\n\ncontract MerkleProof is Ownable,  ReentrancyGuard   {\n    \n    using SafeMath for uint256;\n    MintedToken public feeToken;\n\n    uint256 constant public SERVICE_FEE = 0.1 ether;\n    uint256 constant public REFERRAL_FEE = 15; //  15%\n    address public FEE_ADDRESS;\n    \n\n    uint256 public unlockOpenTime;\n    uint256 public unlockCloseTime;\n    uint public merkleRoot;\n    bool public paused;\n    address [] public allUsers;\n    uint256 public totalClaimed;\n\n    mapping(address => UserInfo) userDetail;\n\n    struct UserInfo {\n        bool isUnlocked;\n        uint256 referencedUserCount;\n        uint256 lastProcessTime;\n        bool isClaimed;\n    }\n\n    \n    event Paused(bool paused);\n    event UserUnlocked(address UserAddress, uint256 date);\n    event tokenClaim(address UserAddress, uint256 amount, uint256 date);\n\n    constructor(uint256 _unlockOpenTime, uint256 _unlockCloseTime, MintedToken _tokenAddress) {\n        unlockOpenTime = _unlockOpenTime;\n        unlockCloseTime = _unlockCloseTime;\n        feeToken = _tokenAddress;\n    }\n\n    modifier mustNotPaused() {\n        require(!paused, \"Paused!\");\n        _;\n    }\n\n    function changePause(bool _paused) public onlyOwner {\n        paused = _paused;\n        emit Paused(_paused);\n    }\n\n    function isUnlocked(address _user) public view returns (bool) {\n\t\tUserInfo storage _userDetail = userDetail[_user];\n        return _userDetail.isUnlocked;\n\t}\n\n    function getRoot() public view returns (uint) {\n      return merkleRoot;\n    }\n\n    function getAllUnlockers() public view returns (address[] memory){\n        return allUsers;\n    }\n\n    function getUserData(address _account) external view returns (bool, uint256, uint256, bool){\n        UserInfo storage _userDetail = userDetail[_account];\n        return (_userDetail.isUnlocked, _userDetail.referencedUserCount, _userDetail.lastProcessTime, _userDetail.isClaimed);\n    }  \n\n    function unlock(address payable _refAddress) external payable  mustNotPaused{\n        require(block.timestamp > unlockOpenTime, \"unlock period is not available\");\n        require(block.timestamp < unlockCloseTime, \"closed\");\n        require(!isUnlocked(msg.sender), \"user already unlocked\");\n        require(msg.value == SERVICE_FEE, \"service fee must be 0.1 ether\");\n        uint256 _refFee = 0;\n        \n        UserInfo storage _userDetail = userDetail[msg.sender];\n        UserInfo storage _refUser = userDetail[_refAddress];\n\n        if(_refAddress != address(0x0)){\n            _refFee = SERVICE_FEE * REFERRAL_FEE.div(100);\n            _refAddress.transfer(_refFee);\n        }\n        uint256 _remaining = SERVICE_FEE - _refFee;\n        payable(FEE_ADDRESS).transfer(_remaining);\n        \n        _userDetail.isUnlocked = true;\n        _userDetail.lastProcessTime = block.timestamp;\n        _refUser.referencedUserCount = _refUser.referencedUserCount.add(1); \n\n        emit UserUnlocked(msg.sender,block.timestamp);\n    } \n\n    function claimTokens(uint256[9] calldata _data, uint[] memory _proof) external mustNotPaused {\n        require(block.timestamp > unlockCloseTime, \"claim period is not available\");\n        require(isUserUnlocked(msg.sender), \"user is not unlocked\");\n        require(!isUserClaimed(msg.sender), \"user already claimed\");\n        uint256 spentGasFeeAmount = _data[1];\n        uint userLeaf = uint(keccak256(abi.encodePacked(msg.sender,_data)));\n        require(verifyMerkle(userLeaf, _proof), \"leaf is not correct\");\n        feeToken.mint(msg.sender, spentGasFeeAmount);\n        UserInfo storage _userDetail = userDetail[msg.sender];\n        _userDetail.isClaimed = true;\n        _userDetail.lastProcessTime = block.timestamp;\n        totalClaimed.add(spentGasFeeAmount);\n        emit tokenClaim(msg.sender, spentGasFeeAmount, block.timestamp);\n    }\n\n    function isUserClaimed(address _account) public view returns (bool) {\n        UserInfo storage _userDetail = userDetail[_account];\n        return bool(_userDetail.isClaimed);\n    }\n\n    function isUserUnlocked(address _account) public view returns (bool) {\n        UserInfo storage _userDetail = userDetail[_account];\n        return bool(_userDetail.isUnlocked);\n    }\n\n    function setClosingTime(uint256 _closingTime) external onlyOwner {\n\t\tunlockCloseTime = _closingTime;\n\t}\n\n    function setFeeAddress(address _feeAddress) external onlyOwner {\n        FEE_ADDRESS = _feeAddress;\n    }\n\n    function setOpeningTime(uint256 _openingTime) external onlyOwner {\n\t\tunlockOpenTime = _openingTime;\n\t}\n\n    function setRoot(uint _merkleRoot) external onlyOwner {\n      merkleRoot = _merkleRoot;\n    }   // setRoot\n\n    function pairHash(uint _a, uint _b) internal pure returns(uint) {\n      return uint(keccak256(abi.encode(_a ^ _b)));\n    }\n     // Verify a Merkle proof\n    function verifyMerkle(uint _value, uint[] memory _proof) \n        public view returns (bool) {\n      uint temp = _value;\n      uint i;\n\n      for(i=0; i<_proof.length; i++) {\n        temp = pairHash(temp, _proof[i]);\n      }\n\n      return temp == merkleRoot;\n    }\n    \n}  \n",
  "sourcePath": "/Users/ahmet_argon/Downloads/truffle-deploy/contracts/merkle-proof+mintable.sol",
  "compiler": {
    "name": "solc",
    "version": "0.8.11+commit.d7f03943.Emscripten.clang"
  },
  "schemaVersion": "3.3.4",
  "updatedAt": "2022-01-19T00:15:57.729Z",
  "devdoc": {
    "kind": "dev",
    "methods": {
      "owner()": {
        "details": "Returns the address of the current owner."
      },
      "renounceOwnership()": {
        "details": "Leaves the contract without owner. It will not be possible to call `onlyOwner` functions anymore. Can only be called by the current owner. NOTE: Renouncing ownership will leave the contract without an owner, thereby removing any functionality that is only available to the owner."
      },
      "transferOwnership(address)": {
        "details": "Transfers ownership of the contract to a new account (`newOwner`). Can only be called by the current owner."
      }
    },
    "version": 1
  },
  "userdoc": {
    "kind": "user",
    "methods": {},
    "version": 1
  }
}